:020000040800F2
:1000000000000320A1090008610800086308000837
:10001000650800086708000869080008000000007B
:100020000000000000000000000000006B08000855
:100030006D080008000000006F0800087108000843
:10004000F1090008F1090008F1090008F1090008A8
:10005000F1090008F1090008F1090008F109000898
:10006000F1090008F1090008F1090008F109000888
:10007000F1090008F1090008F1090008F109000878
:10008000F1090008F1090008F109000879080008E1
:100090008908000899080008A9080008F109000863
:1000A000F1090008F1090008F1090008F109000848
:1000B000F1090008F1090008F1090008F109000838
:1000C000F1090008F1090008F1090008F109000828
:1000D000F1090008F1090008F1090008F109000818
:1000E000F1090008F1090008F1090008F109000808
:1000F000F1090008F1090008F1090008F1090008F8
:10010000F1090008F1090008F1090008F1090008E7
:10011000F1090008F1090008F1090008F1090008D7
:10012000F1090008F1090008F1090008F1090008C7
:10013000F1090008F1090008F1090008F1090008B7
:10014000F1090008F1090008F1090008F1090008A7
:10015000F1090008F1090008F1090008B9080008D0
:10016000F1090008F1090008F1090008F109000887
:10017000F1090008F1090008F10900080000000079
:10018000F1090008F1090008F1090008F109000867
:10019000F1090008F1090008F1090008F109000857
:0C01A0000000000000000000F109000851
:1001AC0053B94AB9002908BF00281CBF4FF0FF31D2
:1001BC004FF0FF3000F0E2B8ADF1080C6DE904CE61
:1001CC0002F00AF8DDF804E0DDE9022304B0704720
:1001DC0000F1340191E838009C46A6464CF8045DC9
:1001EC0090E8FF0FE54600BD90EC210B704700BF77
:1001FC0080EC210B704700BF90EC200B704700BFC8
:10020C0080EC200B704700BFD0EC200B704700BF78
:10021C00C0EC200B704700BFF0EC0201F0EC0211B7
:10022C00F0EC0221F0EC0231F0EC0241F0EC025166
:10023C00F0EC0261F0EC0271F0EC0281F0EC029156
:10024C00F0EC02A1F0EC02B1F0EC02C1F0EC02D146
:10025C00F0EC02E1F0EC02F1704700BFE0EC0201BF
:10026C00E0EC0211E0EC0221E0EC0231E0EC0241A6
:10027C00E0EC0251E0EC0261E0EC0271E0EC028196
:10028C00E0EC0291E0EC02A1E0EC02B1E0EC02C186
:10029C00E0EC02D1E0EC02E1E0EC02F1704700BFCF
:1002AC00B0FC0181B0FC0191B0FC01A1B0FC01B12A
:1002BC00704700BFA0FC0181A0FC0191A0FC01A132
:1002CC00A0FC01B1704700BFEC4600B52DE9005011
:1002DC002DE9FF1F4FF000032DE90C0001A902F0DE
:1002EC0035FADDF840E012B0704700BFEC4600B5BF
:1002FC002DE900502DE9FF1F4FF000032DE90C00F4
:10030C0001A902F05FFADDF840E012B0704700BFBF
:10031C00EC4600B52DE900502DE9FF1F4FF000030E
:10032C002DE90C0001A902F06FFADDF840E012B0E3
:10033C00704700BFEC4600B52DE900502DE9FF1FBA
:10034C004FF000032DE90C0001AB02F033FADDF89D
:10035C0040E012B0704700BFEC4600B52DE90050EC
:10036C002DE9FF1F4FF000032DE90C0001AA02F04C
:10037C00A3FADDF840E012B0704700BF704700BF31
:10038C00844641EA000313F003036DD1403A41D394
:10039C0051F8043B40F8043B51F8043B40F8043B53
:1003AC0051F8043B40F8043B51F8043B40F8043B43
:1003BC0051F8043B40F8043B51F8043B40F8043B33
:1003CC0051F8043B40F8043B51F8043B40F8043B23
:1003DC0051F8043B40F8043B51F8043B40F8043B13
:1003EC0051F8043B40F8043B51F8043B40F8043B03
:1003FC0051F8043B40F8043B51F8043B40F8043BF3
:10040C0051F8043B40F8043B51F8043B40F8043BE2
:10041C00403ABDD2303211D351F8043B40F8043B82
:10042C0051F8043B40F8043B51F8043B40F8043BC2
:10043C0051F8043B40F8043B103AEDD20C3205D392
:10044C0051F8043B40F8043B043AF9D2043208D08A
:10045C00D2071CBF11F8013B00F8013B01D30B88FC
:10046C0003806046704700BF082A13D38B078DD0DA
:10047C0010F003038AD0C3F10403D21ADB071CBFAC
:10048C0011F8013B00F8013B80D331F8023B20F816
:10049C00023B7BE7043AD9D3013A11F8013B00F84F
:1004AC00013BF9D20B7803704B7843708B788370D7
:1004BC00604670470348044B834202D0034B03B1A0
:1004CC00184770477C0100207C01002000000000D0
:1004DC000548064B1B1AD90F01EBA301491002D09A
:1004EC00034B03B1184770477C0100207C010020AE
:1004FC000000000010B5064C237843B9FFF7DAFF73
:10050C00044B13B10448AFF300800123237010BDDA
:10051C007C010020000000009034000808B5054B59
:10052C001BB105490548AFF30080BDE80840FFF753
:10053C00CFBF00BF000000008001002090340008F5
:10054C0010B5084C2346084A002100F011FC237812
:10055C00112B00D010BD4FF48041044800F0EAFF8D
:10056C00F8E700BFDC010020C001002000140240AD
:10057C0008B50D480D4B03600323436000238360D3
:10058C00C3604FF4302202614FF480124261037653
:10059C0043768376C3760377437700F077FA00B916
:1005AC0008BD00F0C3F8FBE7980100200064004090
:1005BC0010B588B000230393049305930693079317
:1005CC000268244B9A4201D008B010BD002401945B
:1005DC0003F5EA331A6C42F000721A641A6C02F0DA
:1005EC0000720192019A02941A6B42F008021A638B
:1005FC001B6B03F008030293029B03230393022259
:10060C00049206930923079303A9134800F086FE6E
:10061C0022462146132000F0FBFD132000F008FEBB
:10062C0022462146142000F0F3FD142000F000FEB9
:10063C0022462146152000F0EBFD152000F0F8FDB8
:10064C0022462146162000F0E3FD162000F0F0FDB6
:10065C00BAE700BF00640040000C024030B58DB01A
:10066C0000240794089409940A940B9401942C4B3D
:10067C001A6B42F040021A631A6B02F040020192AC
:10068C00019A02941A6B42F001021A631A6B02F07F
:10069C0001020292029A03941A6B42F008021A6346
:1006AC001A6B02F008020392039A04941A6B42F03C
:1006BC0080021A631A6B02F080020492049A059469
:1006CC001A6B42F002021A631A6B02F002020592D4
:1006DC00059A06941A6B42F020021A631B6B03F006
:1006EC0020030693069B0F4D22464FF4804128466B
:1006FC0000F01AFF042307930894099407A90A48E9
:10070C0000F00CFE4FF480430793012308930994E7
:10071C000A9407A9284600F001FE0DB030BD00BFB9
:10072C0000380240001402400004024072B6FEE79A
:10073C0000B595B03022002108A802F077FD002307
:10074C00039304930593069307930193234A116C27
:10075C0041F080511164126C02F080520192019AA6
:10076C0002931F4B1A6842F440421A601B6803F450
:10077C0040430293029B012308934FF48033099367
:10078C0002230E934FF480020F9206221092B42291
:10079C00119212930423139308A800F013FFB0B91D
:1007AC0000F0D2FEA8B90F23039302230493002375
:1007BC0005934FF4A05306934FF4805307930521F0
:1007CC0003A801F04FF930B915B05DF804FBFFF741
:1007DC00ADFFFFF7ABFFFFF7A9FF00BF00380240EA
:1007EC000070004008B500F025F9FFF7A1FFFFF7F6
:1007FC0035FFFFF7BDFE00F073F8064C06492046A6
:10080C0000F0EAF9204600F085FA0221204600F0BB
:10081C0064FBFEE7980100200000002082B000215C
:10082C0000910B4B5A6C42F480425A645A6C02F49D
:10083C0080420092009A01911A6C42F080521A6424
:10084C001B6C03F080530193019B02B0704700BFF7
:10085C0000380240FEE7FEE7FEE7FEE7FEE77047E2
:10086C007047704708B500F0FFF808BD08B502489E
:10087C0000F051FB08BD00BF9801002008B50248EC
:10088C0000F049FB08BD00BF9801002008B50248E4
:10089C0000F041FB08BD00BF9801002008B50248DC
:1008AC0000F039FB08BD00BF9801002008B50248D4
:1008BC0001F050FB08BD00BFE00100200120704793
:1008CC0008B502F049FD162303604FF0FF3008BD58
:1008DC0008B54FF0FF31FFF7F3FFFEE7704700005C
:1008EC0008B50A480A4B03604FF4165343600023C3
:1008FC008360C36003610C2242618361C36101F0B8
:10090C006DFA00B908BDFFF711FFFBE7E00100200D
:10091C000014014010B588B0002303930493059391
:10092C00069307930268194B9A4201D008B010BD88
:10093C000024019403F592335A6C42F020025A645D
:10094C005A6C02F020020192019A02941A6B42F046
:10095C0040021A631B6B03F040030293029B4FF49B
:10096C0084430393022304930323069308230793DE
:10097C0003A9074800F0D2FC22462146472000F08C
:10098C0047FC472000F054FCD0E700BF00140140A6
:10099C0000180240DFF834D0FFF7A0FF0C480D49D7
:1009AC000D4A002302E0D458C4500433C4188C42BE
:1009BC00F9D30A4A0A4C002301E013600432A24224
:1009CC00FBD302F0CFFCFFF70DFF704700000320B4
:1009DC00000000207C010020643500087C01002010
:1009EC0000050020FEE7000010B504460E4B1A78F7
:1009FC004FF47A73B3FBF2F30C4A1068B0FBF3F0CC
:100A0C0000F01AFC68B90F2C01D901200AE0002271
:100A1C0021464FF0FF3000F0FBFB054B1C60002023
:100A2C0000E0012010BD00BF2C0000202800002099
:100A3C003000002008B50B4B1A6842F400721A60A3
:100A4C001A6842F480621A601A6842F480721A6062
:100A5C00032000F0CBFB0F20FFF7C6FFFFF7DEFEF5
:100A6C00002008BD003C0240034A1168034B1B7870
:100A7C000B441360704700BF280200202C0000209C
:100A8C00014B1868704700BF28020020002800F0B6
:100A9C00A18038B5044690F82030D3B12268136891
:100AAC0043F001031360FFF7EBFF054623685A6818
:100ABC0012F0010F10D1FFF7E3FF401B0A28F5D904
:100ACC00636A43F400336362052384F82030012009
:100ADC0038BDFFF76DFDE1E71A6822F002021A60DB
:100AEC00FFF7CEFF054623685A6812F0020F0DD0AF
:100AFC00FFF7C6FF401B0A28F5D9636A43F400339D
:100B0C006362052384F820300120E1E7227E012A6C
:100B1C003DD01A6822F080021A60637E012B3BD014
:100B2C002268136823F040031360A37E012B39D095
:100B3C002268136823F020031360E37E012B37D067
:100B4C002268136843F010031360237F012B35D008
:100B5C002268136823F008031360637F012B33D0E2
:100B6C002268136823F004031360A368E26813433C
:100B7C0022691343626913436268013A2168134383
:100B8C00CB6100206062012384F82030A0E71A6852
:100B9C0042F080021A60C0E72268136843F04003F9
:100BAC001360C2E72268136843F020031360C4E7A4
:100BBC002268136823F010031360C6E722681368D9
:100BCC0043F008031360C8E72268136843F004037A
:100BDC001360CAE70120704790F82030013BDBB26C
:100BEC00012B05D9436A43F48023436201207047EB
:100BFC0010B5474BD3F8002242F00102C3F8002293
:100C0C00D3F8002222F47C52C3F80022D3F800223D
:100C1C00486A42EA0022C3F800224A6902F01F0225
:100C2C00012000FA02F2D3F81C026FEA020C20EA4F
:100C3C000200C3F81C02CB69CBB9354BD3F80C02BC
:100C4C000CEA0000C3F80C028C884869D1F80CE05F
:100C5C0044EA0E44483043F830408C68088840EA37
:100C6C0004404C6904F1480E03EBCE035860CB6989
:100C7C00012B1ED08B69002B35D12548D0F80432BE
:100C8C000CEA0303C0F804320B699BBB2048D0F874
:100C9C0014320CEA0303C0F814320B6A012B30D067
:100CAC001B4AD2F8003223F00103C2F800320020B4
:100CBC0010BD174BD3F80C021043C3F80C028C88F0
:100CCC004869D1F800E044EA0E44483043F830401B
:100CDC0088894C69D1F808E040EA0E40483403EBAF
:100CEC00C4035860C6E70A48D0F804321343C0F86E
:100CFC000432C9E70648D0F814321343C0F8143252
:100D0C00CBE70349D1F81C321343C1F81C32C7E7B7
:100D1C000064004070B5044690F82050EDB2012DEF
:100D2C0006D0436A43F4002343620125284670BD74
:100D3C00022380F820300268136823F0010313604B
:100D4C00FFF79EFE064623685B6813F0010F0CD07C
:100D5C00FFF796FE831B0A2BF5D9636A43F4003325
:100D6C006362052384F82030E0E700256562DDE747
:100D7C0090F820C00CF1FF3C5FFA8CFCBCF1010F29
:100D8C0000F2A58030B451B90468E46814F0030F84
:100D9C0010D1436A43F40013436201207EE00468DF
:100DAC00246914F0030F05D1436A43F40013436222
:100DBC00012073E0056801F11B0424012C5904F097
:100DCC0004049460002C6BD1056801F11B04240110
:100DDC002C59640D1460046801F11B0C4FEA0C1CB7
:100DEC0054F80C4004F00204D4600468A444DCF809
:100DFC00045015F0080F5BD008241461046801F14D
:100E0C001B0C04EB0C146468C4F307249461046891
:100E1C0004EB0C146468240C5461026802EB01129C
:100E2C00D2F8B8211A70026802EB0112D2F8B8217C
:100E3C00C2F307225A70026802EB0112D2F8B821F1
:100E4C00C2F307429A70026802EB0112D2F8B82181
:100E5C00120EDA70026802EB0112D2F8BC211A7180
:100E6C00026802EB0112D2F8BC21C2F307225A71BC
:100E7C00026802EB0112D2F8BC21C2F307429A714C
:100E8C00026802EB0112D2F8BC21120EDA71C1B960
:100E9C000268D36843F02003D360002030BC704755
:100EAC00056801F11B0424012C59E408546092E7F5
:100EBC0001F11B0504EB0514646804F00F041461C4
:100ECC009CE70268136943F020031361E5E7436A6A
:100EDC0043F4802343620120704790F82030013B9B
:100EEC00DBB2012B05D9436A43F480234362012012
:100EFC007047026853690B43536100207047704779
:100F0C00704770477047704770477047704770471D
:100F1C007047704770472DE9F84F054603685C69C8
:100F2C00D3F804809F68D3F80CA0D3F81090D3F8B2
:100F3C0018B014F001063BD017F0010616D00122B0
:100F4C009A6017F0020F08D117F0040F0CD117F0AC
:100F5C00080606D04FF4805608E0FFF7D0FF0026B5
:100F6C0004E0FFF7CFFF01E04FF4006617F4807F39
:100F7C000DD02B684FF480729A6017F4007F40F00C
:100F8C00968017F4806F00F0968046F4005617F4A4
:100F9C00803F0DD02B684FF480329A6017F4003FDD
:100FAC0040F0938017F4802F00F0938046F40046B5
:100FBC0014F0080F07D01AF0100F04D046F4007686
:100FCC002B681022DA6014F0040F03D01AF0080F0B
:100FDC0040F0898014F0020F05D02B68DB6813F009
:100FEC00030F40F0878014F0400F07D019F0100F5A
:100FFC0004D046F480662B6810221A6114F0200F7E
:10100C0002D019F0080F79D114F0100F04D02B680E
:10101C001B6913F0030F78D114F4003F02D018F0C1
:10102C00100F76D114F4803F02D018F0080F77D14E
:10103C0014F4004F37D018F0040F31D014F4807F23
:10104C0004D01BF0010F01D046F0010614F4007F10
:10105C0004D01BF0020F01D046F0020614F4806F8E
:10106C0004D01BF0040F01D046F0040614F4006FFA
:10107C0016D01BF0700B13D0BBF1400F66D056D8B6
:10108C00BBF1200F5CD0BBF1300F5CD0BBF1100F6B
:10109C0001D146F008062A68936923F07003936126
:1010AC002B6804225A60002E56D1BDE8F88F2846D2
:1010BC00FFF726FF6BE717F4006F02D046F480466B
:1010CC0065E72846FFF71FFF61E72846FFF719FF82
:1010DC006EE717F4002F02D046F4803668E72846F6
:1010EC00FFF712FF64E72B680822DA602846FFF747
:1010FC000CFF6FE72846FFF723FA74E72B680822EA
:10110C001A612846FFF703FF7EE72846FFF7FEFE2D
:10111C0082E72B6810225A602846FFF7F9FE81E718
:10112C002B6808225A602846FFF7F3FE80E7BBF1D4
:10113C00500F0ED0BBF1600FADD146F48076AAE70C
:10114C0046F01006A7E746F02006A4E746F0400656
:10115C00A1E746F080069EE76B6A33436B62284634
:10116C00FFF7D8FEA1E70000002807DB00F01F0204
:10117C00400901239340024A42F82030704700BFD7
:10118C0000E100E0002808DB0901C9B200F1604071
:10119C0000F5614080F80013704700F00F00090162
:1011AC00C9B2014B1954704714ED00E000B500F0C2
:1011BC000700C0F1070CBCF1040F28BF4FF0040C62
:1011CC00031D062B0FD9C31E4FF0FF3E0EFA0CF079
:1011DC0021EA000199400EFA03FE22EA0E0241EACE
:1011EC0002005DF804FB0023EEE70000074AD36819
:1011FC0023F4E0631B041B0C000200F4E0600343C7
:10120C0043F0BF6343F40033D360704700ED00E05C
:10121C0010B50446054BD868C0F30220FFF7C6FF93
:10122C0001462046FFF7AEFF10BD00BF00ED00E009
:10123C0008B5FFF799FF08BD0138B0F1807F0BD2DC
:10124C004FF0E0235861054AF02182F8231000206A
:10125C00986107221A6170470120704700ED00E089
:10126C0070B50446866DFFF70BFC94F83530DBB295
:10127C00022B06D080236365002384F834300120D0
:10128C0070BD05462268136823F0160313602268AC
:10129C00536923F080035361236CE3B12268136814
:1012AC0023F0080313602268136823F00103136012
:1012BC0023681B6813F0010F11D0FFF7E1FB431BF0
:1012CC00052BF5D920236365032084F83500002312
:1012DC0084F83430D4E7A36C002BDFD1E3E7E26D64
:1012EC003F239340B360012384F83530002084F809
:1012FC003400C5E790F83530DBB2022B03D08023E5
:10130C00436501207047052380F835300268136867
:10131C0023F00103136000207047000000230F2B03
:10132C0000F2F98030B583B069E085684FEA430E6E
:10133C00032404FA0EF425EA0405CC6804FA0EF42E
:10134C002C438460446824EA02044A68C2F3001205
:10135C009A402243426060E0DC08083450F82420B4
:10136C0003F00705AD004FF00F0E0EFA05FE22EA52
:10137C000E0E0A69AA4042EA0E0240F8242060E0F0
:10138C00092200E0002202FA0EF22A430234624DD6
:10139C0045F82420614A94686FEA0C0224EA0C0593
:1013AC00D1F804E01EF4801F01D04CEA04055B4C1C
:1013BC00A560E46802EA0405D1F804E01EF4001FFD
:1013CC0001D04CEA0405554CE560646802EA04055A
:1013DC00D1F804E01EF4003F01D04CEA04054F4C58
:1013EC006560246822404D6815F4803F01D04CEABA
:1013FC0004024A4C226001330F2B00F28A80012236
:10140C009A400C6804EA020C32EA0404F3D14C68EA
:10141C0004F00304013C012C87D94A6802F0030252
:10142C00032A09D0C4685D000322AA4024EA0204FE
:10143C008A68AA402243C2604A6802F00302022A68
:10144C008AD004684FEA430E032202FA0EF224EA11
:10145C0002044A6802F0030202FA0EF2224302600E
:10146C004A6812F4403FC6D0002201922C4A546CB8
:10147C0044F480445464526C02F480420192019A08
:10148C009C08A51C244A52F8255003F0030E4FEA81
:10149C008E0E0F2202FA0EF225EA0205214A904224
:1014AC003FF470AF02F58062904222D002F5806268
:1014BC00904220D002F5806290421ED002F58062EC
:1014CC0090421CD002F5806290421AD002F58062E4
:1014DC00904218D002F58062904216D002F58062DC
:1014EC00904214D002F5806290423FF449AF0A2238
:1014FC0049E7012247E7022245E7032243E704229A
:10150C0041E705223FE706223DE707223BE7082299
:10151C0039E703B030BD704700380140003C014052
:10152C0000380240000002400AB181617047090492
:10153C0081617047436901EA030221EA030141EA30
:10154C00024181617047000010B582B00023019305
:10155C00194B1A6C42F080521A641B6C03F08053C6
:10156C000193019B154B01221A64FFF789FA04467B
:10157C00134B5B6813F4803F08D1FFF781FA001B13
:10158C00B0F57A7FF4D9032002B010BD0B4B0122C9
:10159C005A64FFF775FA0446094B5B6813F4003F75
:1015AC0007D1FFF76DFA001BB0F57A7FF4D9032051
:1015BC00EAE70020E8E700BF0038024000000E42D6
:1015CC0000700040002800F0E08170B582B0044645
:1015DC00036813F0010F3BD09F4B9B6803F00C0387
:1015EC00042B2CD09C4B9B6803F00C03082B21D0B4
:1015FC006368B3F5803F4FD0B3F5A02F52D0964B14
:10160C001A6822F480321A601A6822F480221A6056
:10161C006368002B50D0FFF733FA05468E4B1B68DE
:10162C0013F4003F14D1FFF72BFA401B6428F5D9B3
:10163C000320B1E1884B5B6813F4800FD8D0864B44
:10164C001B6813F4003F03D06368002B00F09F81EC
:10165C00236813F0020F54D07F4B9B6813F00C0FD0
:10166C003ED07D4B9B6803F00C03082B33D0E36812
:10167C00002B68D0794B01221A60FFF701FA05465E
:10168C00754B1B6813F0020F54D1FFF7F9F9401B8F
:10169C000228F5D903207FE16F4A136843F48033A5
:1016AC001360B5E76C4B1A6842F480221A601A6812
:1016BC0042F480321A60ABE7FFF7E2F90546664B5D
:1016CC001B6813F4003FC3D0FFF7DAF9401B642802
:1016DC00F5D9032060E1604B5B6813F4800FC6D131
:1016EC005D4B1B6813F0020F03D0E368012B40F035
:1016FC005081594A136823F0F803216943EAC10366
:10170C001360236813F0080F42D063696BB3534B1B
:10171C000122C3F8802EFFF7B3F905464E4B5B6FE1
:10172C0013F0020F34D1FFF7ABF9401B0228F5D9A7
:10173C00032031E1484A136823F0F803216943EA96
:10174C00C1031360DDE7454B00221A60FFF798F9DF
:10175C000546414B1B6813F0020FD2D0FFF790F9EE
:10176C00401B0228F5D9032016E13C4B0022C3F89C
:10177C00802EFFF785F90546374B5B6F13F0020F90
:10178C0006D0FFF77DF9401B0228F5D9032003E1B1
:10179C00236813F0040F77D02F4B1B6C13F0805F72
:1017AC0033D1002301932C4B1A6C42F080521A64F3
:1017BC001B6C03F080530193019B0125284B1B6884
:1017CC0013F4807F23D0A368012B34D0052B38D0A1
:1017DC00214B1A6F22F001021A671A6F22F00402D1
:1017EC001A67A368002B3DD0FFF74AF906461A4B3F
:1017FC001B6F13F0020F46D1FFF742F9801B41F229
:10180C0088339842F3D90320C6E00025D6E7144A62
:10181C00136843F480731360FFF732F90646104BDC
:10182C001B6813F4807FCED1FFF72AF9801B0228A6
:10183C00F5D90320B0E0084A136F43F00103136796
:10184C00CFE7054B1A6F42F004021A671A6F42F089
:10185C0001021A67C5E700BF00380240000047428A
:10186C0000700040FFF70CF90646524B1B6F13F04B
:10187C00020F08D0FFF704F9801B41F2883398421D
:10188C00F3D9032088E0EDB9A369002B00F0838025
:10189C00484A926802F00C02082A51D0022B17D049
:1018AC00454B00221A66FFF7EBF80446414B1B68C8
:1018BC0013F0007F42D0FFF7E3F8001B0228F5D9A4
:1018CC00032069E03B4A136C23F080531364DBE77D
:1018DC00394B00221A66FFF7D3F80546354B1B68C7
:1018EC0013F0007F06D0FFF7CBF8401B0228F5D988
:1018FC00032051E0E369226A1343626A43EA8213CC
:10190C00A26A5208013A43EA0243E26A43EA0263DA
:10191C00284A5360284B01221A66FFF7B1F8044697
:10192C00244B1B6813F0007F06D1FFF7A9F8001BAE
:10193C000228F5D903202FE000202DE000202BE019
:10194C00012B2BD01B4B5B6803F48001E2699142A5
:10195C0026D103F03F02216A8A4223D1616A47F6FD
:10196C00C0721A40B2EB811F1ED103F44031A26A3F
:10197C005208013AB1EB024F18D103F07063E26ADE
:10198C00B3EB026F14D1002006E001207047012058
:10199C0002E0012000E0002002B070BD0120FBE756
:1019AC000120F9E70120F7E70120F5E70120F3E733
:1019BC000120F1E7003802400000474208B5264BF1
:1019CC009B6803F00C03042B41D0082B41D1224B14
:1019DC005A6802F03F025B6813F4800F12D01E4B62
:1019EC005968C1F388111D480023A1FB0001FEF7C3
:1019FC00D7FB194B5B68C3F3014301335B00B0FBAE
:101A0C00F3F008BD144B5868C0F388104FEA401C23
:101A1C00BCEB000C6EEB0E0E4FEA8E1343EA9C638C
:101A2C004FEA8C11B1EB0C0163EB0E03DB0043EAC4
:101A3C005173C90011EB000C43F100039902002310
:101A4C004FEA8C2041EA9C51FEF7AAFBD1E70348F0
:101A5C00D7E70348D5E700BF00380240001BB700AA
:101A6C000024F400002800F09B8070B50D4604465D
:101A7C004F4B1B6803F00F038B4208D2CBB24C4A7E
:101A8C001370136803F00F038B4240F08B802368B4
:101A9C0013F0020F17D013F0040F04D0454A9368CB
:101AAC0043F4E0539360236813F0080F04D0414AC9
:101ABC00936843F4604393603E4A936823F0F003C9
:101ACC00A1680B439360236813F0010F32D0636855
:101ADC00012B21D09A1E012A25D9364A126812F000
:101AEC00020F61D033498A6822F0030213438B60E2
:101AFC00FEF7C6FF06462F4B9B6803F00C0362688B
:101B0C00B3EB820F16D0FEF7BBFF801B41F288337C
:101B1C009842F0D9032042E0264A126812F4003FA2
:101B2C00E0D101203BE0234A126812F0007FD9D1AA
:101B3C00012034E01E4B1B6803F00F03AB4207D9A6
:101B4C00EAB21B4B1A701B6803F00F03AB422DD18A
:101B5C00236813F0040F06D0164A936823F4E0535D
:101B6C00E1680B439360236813F0080F07D0114A08
:101B7C00936823F46043216943EAC1039360FFF740
:101B8C001DFF0C4B9B68C3F303130B4AD35CD8406B
:101B9C000A4B18600A4B1868FEF726FF002070BD30
:101BAC00012070470120FAE70120F8E70120F6E751
:101BBC00003C024000380240B034000828000020ED
:101BCC0030000020014B1868704700BF280000202F
:101BDC0008B5FFF7F7FF044B9B68C3F38223034A56
:101BEC00D35CD84008BD00BF00380240A8340008C0
:101BFC0008B5FFF7E7FF044B9B68C3F34233034A76
:101C0C00D35CD84008BD00BF00380240A83400089F
:101C1C00026802F10C0353E8003F23F490730C327A
:101C2C0042E800310029F3D1026802F1140353E8B1
:101C3C00003F23F00103143242E800310029F3D1B4
:101C4C00036B012B05D0202380F842300023036363
:101C5C007047026802F10C0353E8003F23F01003B5
:101C6C000C3242E800310029F3D1ECE790F8413016
:101C7C00DBB2212B01D0022070478368B3F5805F63
:101C8C0017D0036A5A1C02621A7803685A60C38C14
:101C9C009BB2013B9BB2C3844BB90268D36823F05F
:101CAC008003D3600268D36843F04003D360002004
:101CBC0070470369002BE4D1036A1B880268C3F3E5
:101CCC0008035360036A02330362E0E710B504466D
:101CDC000268136923F44053C1680B431361836892
:101CEC0002691A4343691A43C3691A430168CB68F2
:101CFC0023F4164323F00C031343CB60026853699F
:101D0C0023F4407381690B4353610368314A934256
:101D1C0006D002F58062934202D0FFF759FF01E032
:101D2C00FFF766FFE369B3F5004F29D000210318D4
:101D3C0049411B1841F10001C90041EA5371DB0014
:101D4C00181863684FEA83024FEA937341F100015C
:101D5C00FEF726FA204AA2FB00314909642303FB53
:101D6C0011031B013233A2FB03235B0903F0F002C6
:101D7C0002EB011203F00F03216813448B6010BDBA
:101D8C000023021843EB0301121841F10001C900B2
:101D9C0041EA5271D200101841F1000162689218A8
:101DAC005B41FEF7FDF90C4AA2FB003149096423A3
:101DBC0003FB1103DB003233A2FB03235B095A0044
:101DCC0002F4F87202EB011203F0070321681344CA
:101DDC008B60D4E7001001401F85EB5160B310B548
:101DEC00044690F8413013B3242384F84130226820
:101DFC00D36823F40053D3602046FFF767FF2268B3
:101E0C00136923F4904313612268536923F02A0366
:101E1C0053612268D36843F40053D360002060649C
:101E2C00202384F8413084F84230606310BD80F880
:101E3C004030FEF76FFDD7E701207047704708B5BB
:101E4C000168CA6822F04002CA60202280F8412052
:101E5C00FFF7F4FF002008BD7047704708B5806B92
:101E6C000023C385C384FFF7F8FF08BD704790F8C3
:101E7C004230DBB2222B69D18368B3F5805F4FD03F
:101E8C00826AB3F5805F04D0002B56D10369002B16
:101E9C0053D103685B681370836A01338362C38D0B
:101EAC009BB2013B9BB2C385002B51D100B583B0D3
:101EBC000268D36823F02003D3600268D36823F44C
:101ECC008073D3600268536923F0010353612023AC
:101EDC0080F8423000234363036B012B33D1002382
:101EEC000363026802F10C0353E8003F23F0100374
:101EFC000C3242E800310029F3D103681A6812F061
:101F0C00100F06D0002201921A6801925B680193AF
:101F1C00019B818DFFF7AAFF002003B05DF804FB45
:101F2C000269002AACD1826A03685B68C3F30803B8
:101F3C001380836A02338362B1E703685B6803F042
:101F4C007F031370A8E7FFF787FFE5E702207047D0
:101F5C000020704710B582B0044602681368D06840
:101F6C00516913F00F0F09D113F0200F0CD010F0A2
:101F7C00200F09D02046FFF77AFF16E011F001017F
:101F8C0015D110F4907F12D1216B012979D013F067
:101F9C00800F03D010F0800F40F0148113F0400F2D
:101FAC0003D010F0400F40F0118102B010BD13F0BF
:101FBC00010F06D010F4807F03D0626C42F0010256
:101FCC00626413F0040F04D019B1626C42F0020287
:101FDC00626413F0020F04D019B1626C42F0040277
:101FEC00626413F0080F07D010F0200F00D119B164
:101FFC00626C42F008026264626C002AD5D013F065
:10200C00200F02D010F0200F29D123685B6903F058
:10201C004003626C12F0080F00D163B32046FFF747
:10202C00F7FD23685B6913F0400F20D0226802F1A2
:10203C00140353E8003F23F04003143242E800310C
:10204C000029F3D1E36B73B1624A1A65E06BFFF7B9
:10205C0051F90028A9D0E06B036D9847A5E72046FD
:10206C00FFF705FFD1E72046FFF7F7FE9DE7204677
:10207C00FFF7F3FE99E72046FFF7EFFE00236364BA
:10208C0093E713F0100F82D010F0100F3FF47FAFD6
:10209C00002301931368019353680193019B5369C7
:1020AC0013F0400F52D0E26B13685B689BB2002BAD
:1020BC003FF47BAFA18D99427FF677AFE385D3696F
:1020CC00B3F5807F37D0226802F10C0353E8003F50
:1020DC0023F480730C3242E800310029F3D12268DA
:1020EC0002F1140353E8003F23F00103143242E8D9
:1020FC0000310029F3D1226802F1140353E8003FA8
:10210C0023F04003143242E800310029F3D120239C
:10211C0084F8423000232363226802F10C0353E855
:10212C00003F23F010030C3242E800310029F3D1B8
:10213C00E06BFFF795F802236363A18DE38D9BB2EF
:10214C00C91A89B22046FFF791FE2EE7A18DE38DC7
:10215C009BB2C91A89B2E38D9BB2002B3FF425AF19
:10216C0000293FF422AF226802F10C0353E8003F30
:10217C0023F490730C3242E800300028F3D122682B
:10218C0002F1140353E8003F23F00103143242E838
:10219C0000300028F3D1202384F84230002323633D
:1021AC00226802F10C0353E8003F23F010030C32B9
:1021BC0042E800300028F3D1022363632046FFF786
:1021CC0055FEF2E62046FFF751FDEEE62046FFF7FE
:1021DC0036FEEAE6691E00082DE9F047089D0E461A
:1021EC0004460F46002B4AD194468C45B2FA82F233
:1021FC0060D942B1C2F12003974020FA03F30CFAE4
:10220C0002FC1F4394404FEA1C4E1FFA8CF6B7FB9E
:10221C00FEF1230C0EFB117743EA074301FB06F09A
:10222C0098420AD91CEB030301F1FF3780F01581AA
:10223C00984240F21281023963441B1AA4B2B3FBD8
:10224C00FEF00EFB103344EA034400FB06F6A642F4
:10225C000AD91CEB040400F1FF3380F00081A64284
:10226C0040F2FD806444023840EA0140A41B002186
:10227C001DB1D4400023C5E90043BDE8F0878B4273
:10228C0005D90DB1C5E9000100210846F5E7B3FAFF
:10229C0083F1002946D1B34202D3824200F2F58089
:1022AC00841A66EB030201201746002DE5D0C5E920
:1022BC000047E2E7002A40F09380A1EB0C034FEAC1
:1022CC001C471FFA8CFE0121B3FBF7F607FB1630F7
:1022DC00230C43EA00430EFB06F0984208D91CEB92
:1022EC00030306F1FF3802D2984200F2D080464632
:1022FC001B1AA4B2B3FBF7F007FB103344EA0344F8
:10230C000EFB00FEA64508D91CEB040400F1FF33BC
:10231C0002D2A64500F2B6801846A4EB0E0440EAA1
:10232C000640A5E7C1F120078B4022FA07FC4CEAD6
:10233C00030C06FA01FE20FA07F426FA07F344EA26
:10234C000E0400FA01F84FEA1C404FEA1449B3FBA3
:10235C00F0FE1FFA8CF600FB1E3349EA03430EFB1A
:10236C0006F9994502FA01F20BD91CEB03030EF1A5
:10237C00FF3A80F08580994540F28280AEF1020EE2
:10238C006344A3EB0909A4B2B9FBF0F300FB139966
:10239C0044EA094403FB06F6A64208D91CEB0404E4
:1023AC0003F1FF3068D2A64266D9023B644443EA8B
:1023BC000E40A41BA0FB02E6B4427346B14652D3B6
:1023CC004FD05DB1B8EB030264EB090404FA07F7D4
:1023DC0022FA01F31F43CC40C5E9007400214CE7FD
:1023EC00C2F1200120FA01F30CFA02FC26FA01F1E9
:1023FC00964033434FEA1C471FFA8CFEB1FBF7F0B3
:10240C0007FB1016190C41EA064100FB0EF68E4232
:10241C0004FA02F408D91CEB010100F1FF382DD2AB
:10242C008E422BD902386144891B9BB2B1FBF7F663
:10243C0007FB161143EA014306FB0EF1994208D93A
:10244C001CEB030306F1FF3814D2994212D9023E59
:10245C0063445B1A46EA004136E73946EDE6184616
:10246C0002E7F045ADD2BEEB020366EB0C06013879
:10247C00B146A6E74646ECE7034698E74046D3E765
:10248C00D6467EE76444023847E708460DE7023E2D
:10249C0063442DE703685A004CBF43F0004323F01C
:1024AC0000431844704700BF2DE9F04759B301F1C0
:1024BC00FF380546164647464FF0000A0AEB07015F
:1024CC0001EBD171491005EBC1094846FFF7E2FF5A
:1024DC0088454FEAC104034610D004F10800B3420A
:1024EC00284407D8FFF7D6FF0138B04208D201F1D3
:1024FC00010AE3E78A4506D04F1EDFE7B042F9D860
:10250C004846BDE8F0874FF000094846BDE8F08723
:10251C00012809D0022805D0044B00280CBF18460E
:10252C00002070470248704702487047ED2B0008A6
:10253C00FD2B0008F52B000830B5224B83B0044668
:10254C008D1E43B301A92846AFF30080F0B1019969
:10255C002A46FFF7A9FF0146C0B1FFF79BFF4B6866
:10256C00A064012B2BD0002B01F1040025DBFFF71D
:10257C0091FF002323650368E064002B12DBFFF757
:10258C0089FF03460020236103B030BD00230920DE
:10259C00236103B030BD0C4B0C49C91AC910184645
:1025AC000191D5E7C3F30360FFF7B2FF031E0CBF25
:1025BC0009200020236103B030BD0123DAE700239A
:1025CC000520E0E700000000C03400085835000882
:1025DC000368DA0710B5044606D49B0700F15000D7
:1025EC0009D5FDF709FE2368590709D51A070ED539
:1025FC00DB0613D510BDFDF7F7FD23685907F5D49D
:10260C0004F1D800FDF700FE23681A07F0D404F596
:10261C00AC70FDF701FE2368DB06EBD404F5EC701F
:10262C00BDE81040FDF73CBE0346006800B11844FD
:10263C00704700BF704700BF70B504460E46316C42
:10264C002046FFF779FF054688B9326C6261236931
:10265C0032462146012098470828F0D0072806D199
:10266C002846316CFFF7E6FF301DFDF7B1FD00F099
:10267C00D5FD00BF2DE9F04701F1040CC768D0F877
:10268C00188006469146BCE80F00ADF5767D03AC8C
:10269C000FC4BCE80F000FC4BCE80F000FC49CE8CB
:1026AC000F0002AD4FF0000E84E80F00C5F800E0FB
:1026BC0021E02B6C73614FF4F47229467CA8FDF772
:1026CC005FFE33697CAA3146504698478A9BAB64BF
:1026DC004946CDE900588246334601203246B84778
:1026EC00814630BB4FF4F4727CA92846FDF748FEB6
:1026FC00BAF1080F1AD1296C3046FFF71DFF09F10A
:10270C00090904465FFA89FA0028D2D0AB6BAB6496
:10271C003246CDE9005833464AF010010120B84743
:10272C0038B920460DF5767DBDE8F087BAF1070F74
:10273C0005D0092420460DF5767DBDE8F087484686
:10274C00296CFFF777FF03A8FDF742FDF0B5CB6BC3
:10275C00FBB001F1040C0B640E460546BCE80F00FF
:10276C0001AC0FC4BCE80F000FC4BCE80F000FC4D1
:10277C009CE80F004FF0FF3784E80F00009706E04D
:10278C002B696A46294698470828044608D11099AF
:10279C002846FFF7D1FE0028F2D009207BB0F0BD0F
:1027AC006846FFF715FF062CF7D131462846FFF790
:1027BC0043FF00BFC160D96B8261196400221946C6
:1027CC00FFF758BF70B5C66843690B64AEB90369AF
:1027DC000A4604460D46014602209847072805D0B4
:1027EC0008280FD129462046FFF726FF3046296CD2
:1027FC00FFF720FF281DFDF7EBFC0122FFF73AFF46
:10280C0000F00CFD00F00AFDC26822B1CA6B0A642C
:10281C000022FFF72FBFFFF799BF00BF052915D87E
:10282C00DFE801F00A031403030501207047009A46
:10283C00436C13600020704743B90F2A06D800EB95
:10284C00820200205368009A136070470220704780
:10285C0000B585B00A46002303A900911946FFF77D
:10286C00DDFF039805B05DF804FB00BF052915D802
:10287C00DFE801F00A031403030501207047009BF5
:10288C001B6843640020704743B90F2A06D8009B8D
:10289C0000EB82021B6853600020704702207047D7
:1028AC0010B584B0002303AC039200940A46194679
:1028BC00FFF7DCFF04B010BD70B5D36BADF5107D28
:1028CC0002F1040C136405460C46BCE80F000DF134
:1028DC005C0EAEE80F00BCE80F00AEE80F00BCE8E1
:1028EC000F00AEE80F009CE80F004FF0FF368EE8AB
:1028FC000F00169610E0FFF7D3FF214616A8A84745
:10290C00034616AA0820694683B9049B98470528F4
:10291C0006460CD0092809D026996846FFF70CFE0C
:10292C0003460C216A4616A8002BE4D0092616A8EB
:10293C00FFF74EFE30460DF5107D70BD2DE9F04FC2
:10294C001646CA6C89B00D4652F8041B069200F06C
:10295C00030C002B79D00C0C8DF81D400904E4B24B
:10296C00059102EB840202218DF81C10296DBCF13B
:10297C00020F08BFAA6B11F0010809D005A9304657
:10298C0000F0CEFA002856D1082009B0BDE8F08F2F
:10299C001768002FF2D000F00801CDE90118E346CA
:1029AC009A46BAF1020F4CD01788548802F10409E8
:1029BC00AA6C24F001030F21304603EB0208FFF749
:1029CC0047FF80453BD827F0010202EB0803834206
:1029DC0094BF00230123640004F0020407F00107F4
:1029EC002743012F4ED0022F35D027BBBBF1000F50
:1029FC0002D0002B40F0D38009F104021768002F9D
:102A0C00CFD105A93046DDF8088000F089FA90B9DD
:102A1C00B8F1000FB8D00F213046FFF719FF0E2187
:102A2C0002463046FFF73CFF6C4A0F213046FFF759
:102A3C0037FF072000E0092009B0BDE8F08F002324
:102A4C00C9E7546802F10809B2E7090205918DF84B
:102A5C001D30032188E7D9F8004024F00048BBF171
:102A6C00000F47D12BB1019B002B5CD0B8F1000FAC
:102A7C0059D0002C01DA09F1040908F1010209EB23
:102A8C008202BBE7BBF1000F1CD1C3B1D9F80430F3
:102A9C00D9F80020991C4FEAD272CCD005F1580419
:102AAC000133049400F08E8009F10400FFF7BCFDA3
:102ABC0004AB01462846AFF30080002859D109F138
:102ACC0008029BE70D213046FFF7C2FE2C6A8442B8
:102ADC00F5D1AB6A9945F2D14846FFF7DBFC0F21E3
:102AEC0002463046FFF7DCFE2A4600213046FFF74F
:102AFC00D7FE9EE70D213046FFF7AAFE2F6A8742CC
:102B0C00B7D1AB6A9945B4D100240423C5E90B4372
:102B1C004B44C5F828806B63D9F80030A34258DBCE
:102B2C0001230293A9E705F15803CDF80CB009F184
:102B3C000407B34600241E460BE038460496FFF704
:102B4C0073FD0022014604AB2846AFF30080043726
:102B5C00F8B9444504F10104EFD10D215846FFF7B3
:102B6C0077FE049BC5F828900246C5E90823062089
:102B7C0062E704460D213046FFF76AFE049E286288
:102B8C00022C04BFEE6205F12C06C5E9096906208A
:102B9C0052E75E46D9F80040DDF80CB069E74846CC
:102BAC00FFF778FC09F104030446AB632846AFF346
:102BBC00008000283FF43FAF22460F213046FFF73C
:102BCC006FFE36E730460D21FFF742FE264628629F
:102BDC00DBE708F1010209EB82007EE70000000050
:102BEC000023FFF7ABBE00BF0123FFF7A7BE00BF5A
:102BFC000223FFF7A3BE00BF2DE9F0410646C4B087
:102C0C001446052900F2D880DFE811F012002D00DF
:102C1C00D6006C0091000600836B002C40F0CC8039
:102C2C0053F8042B42648363002044B0BDE8F08168
:102C3C00002B40F0C180856B1FFA84FC012006F14B
:102C4C00040E00FA03F111EA0C0F2A4604D052F8D4
:102C5C00041B4EF8231015460133102BF1D1A70499
:102C6C00E2D4B563E0E7012B4FEA1447A4B200F0BD
:102C7C008380052B40F0A08007EB0408B8F1200FEF
:102C8C0000F29A800F2F40F29980002CCCD0026871
:102C9C00500700F11881019302AD2846FDF7B8FAF0
:102CAC004FEA440CA7F11000B16B019B0CF1FF3CF7
:102CBC0005EBC0000CF1010C043801EB8C0251F84F
:102CCC00044B40F8044F9142F9D1012B00F0DE8007
:102CDC000F2FB16302D822A8FDF78EFA2846FDF714
:102CEC0093FAA1E7032B67D1A7B207EB1443102B80
:102CFC004FEA144460D80368190700F1BF8022AD75
:102D0C002846FDF7ABFA7A00B06B05EBC404531EF2
:102D1C0042B1011B625844F8042B013B5A1CF9D1F7
:102D2C0000EBC700B0632846FDF776FA7CE7002B72
:102D3C0042D1102C40D80368DD0600F1978022ADFB
:102D4C002846FDF7B7FAB76B294600234FF0010C64
:102D5C000CFA03F22242384603F1010303D050F877
:102D6C00042B0A600746042B01F10401F0D1B76370
:102D7C002846FDF795FA57E73A19102A1CD8102F58
:102D8C001AD00268D00708D5304622F0030240F86A
:102D9C00502B0193FDF72CFA019B019322AD284691
:102DAC00FDF726FAB26B019B002C58D10432B263AA
:102DBC002846FDF719FA37E7022036E7B8F1100F6D
:102DCC00026865D9D40772D522F0010242F00202E2
:102DDC0040F8502B0193FDF713FA3268019B12F067
:102DEC00040F66D122AD28460193FDF709FA02A81B
:102DFC00FDF70EFAC7F110014900B26B019BA8F167
:102E0C00100C4C1E05EBC7000134043802EB840196
:102E1C0052F8044B40F8044F8A42F9D1BCF1000F30
:102E2C005AD0102F384638BF10204FEA4C0C1038AF
:102E3C0002AD0CF1FF3C05EBC0003BE7304622F045
:102E4C00010242F0020240F8502B22AD0193FDF733
:102E5C00D7F92846FDF7D4F9B26B24B3019B640073
:102E6C00013C05EBC7004FF0000CCDE723F010033D
:102E7C00036000F5EC70FDF71DFA60E723F0080322
:102E8C00036000F5AC70FDF7E9F938E722AD8DE78A
:102E9C00D107D3D422AD28460193FDF7B1F9B26B1B
:102EAC00019B002CDBD12846FDF7A6F9BCE65407A4
:102EBC0098D5304622F0040240F8D82B0193FDF748
:102ECC00A7F9019B8EE7304622F0040240F8D82B7C
:102EDC000193FDF79DF9DFE6012B3FF467AF0F2F50
:102EEC00B2633FF6A1AEDEE7027A03467AB9427AC4
:102EFC00A2B14168013A10B44272086803220C1D59
:102F0C001A7202025C60000E10BC1A6070470068F6
:102F1C00013A1A7202021A60000E7047B020704714
:102F2C002DE9F043064685B00D464FF000082846C3
:102F3C00FFF7DAFFB028044600F01C8107065BD5CA
:102F4C0000F0F003A02B1AD030D8802B00F0828038
:102F5C00902B27D100F00D030D2B23D002AF0023B3
:102F6C0000F00F02194600973046FFF757FC00237C
:102F7C0000970D2219463046FFF778FCD7E7C3437C
:102F8C0003F007034FF47F621A41010702F47F62DA
:102F9C0001D542F48042002319463046FFF72CFE3F
:102FAC000028C4D0092005B0BDE8F083B02B68D050
:102FBC00C02B3DD1C62800F0CA80C72800F0DF80A6
:102FCC0000F0F803C02B00F0EC80C82800F0F7806C
:102FDC00C928E7D12846FFF787FF020300F00F004E
:102FEC0002F4702201300243012105233046FFF721
:102FFC0003FE00289BD0D5E78300DBB21F1D0DF12B
:10300C00080900231946CDF800900D223046FFF731
:10301C0005FC029BCDF8009060064CBFDF1BFF182F
:10302C0000230D22194630460297FFF71FFC7EE75E
:10303C0000F0F803D02BB5D100F0070201320523C4
:10304C0042F4002201213046FFF7D6FD00283FF460
:10305C006EAFA7E72846FFF747FF24022043B0F5E1
:10306C00004F9FD004010023A2B219463046FFF74F
:10307C00C3FD002896D114F4004F18BF4FF001087F
:10308C0055E7A0F1B103042B00F2B580DFE803F0A3
:10309C005529160C030003AA0023009219460D2291
:1030AC003046FFF7BBFB42E700231A4605213046AA
:1030BC00FFF7A2FD00283FF43AAF73E72846FFF76D
:1030CC0013FF020300F00F00013002F47022012301
:1030DC00024319463046FFF78FFD00283FF427AF17
:1030EC0060E700230DF108090D221946CDF8009078
:1030FC003046FFF793FB2846FFF7F6FE0206029CCC
:10310C004FF002070BD500F07F00B840044428466E
:10311C000294FFF7E9FE030607F10707F3D4B84062
:10312C00002304F501740444CDF800900D221946D7
:10313C0030460294FFF79AFBF9E62846FFF7D4FED7
:10314C00431EDBB20E2B02467FF625AF2AE728463C
:10315C00FFF7CAFE020300F00F00013002F47022E8
:10316C000323024319463046FFF746FD00283FF47F
:10317C00DEAE17E7B8F1000F2DD0002013E728467C
:10318C00FFF7B2FE431EDBB20E2B02463FF60AAF30
:10319C00002304213046FFF72FFD00283FF4C7AE73
:1031AC0000E700F00F020132032342F420221946FB
:1031BC003046FFF721FD00283FF4B9AEF2E6284671
:1031CC00FFF792FE00F0F00200F00F031032013313
:1031DC0043EA023208E702AC4346414600940E2211
:1031EC003046FFF71BFB0F22009443464146304606
:1031FC00FFF73CFBC1E700F0FC03B42B3FF4D2AE6D
:10320C0000F007020132012342F400221946304635
:10321C00FFF7F2FC00283FF48AAEC3E608B506209F
:10322C0000F056F80120FDF753FB00BF830730B5C3
:10323C0047D0541E002A3ED0CAB2034601E0013CDE
:10324C0039D303F8012B9D07F9D1032C2CD9CDB21E
:10325C0005EB05250F2C05EB054535D9A4F110021E
:10326C0022F00F0C03F1100EE6444FEA121C1A4622
:10327C00C2E90055C2E9025510327245F8D10CF181
:10328C00010214F00C0F03EB021204F00F0C13D01C
:10329C00ACF1040323F003030433134442F8045B3E
:1032AC009342FBD10CF003042CB1C9B21C4403F8BB
:1032BC00011BA342FBD130BD64461346002CF4D154
:1032CC00F9E703461446C0E71A46A446E0E700BFF8
:1032DC0038B5144B1F281D681ED8D5F83821044664
:1032EC0062B152F820304BB1012B05D0591C0FD0D4
:1032FC00002142F820109847002038BD284600F0E5
:10330C0029F8224601462846BDE8384000F00CB8A2
:10331C0016232B60012038BD16232B604FF0FF3095
:10332C0038BD00BF3400002070B50C46084D034674
:10333C000026204611461C462E60FDF7C1FA431CA0
:10334C0000D070BD2B68002BFBD0236070BD00BF7C
:10335C006C030020FDF7B2BA014B1868704700BF30
:10336C003400002070B50F4B0F4DAB42A3EB05069C
:10337C0007D0B610002455F8043B01349847A642F8
:10338C00F9D800F07FF8094D094B5E1BAB424FEAB0
:10339C00A60606D0002455F8043B01349847A642F3
:1033AC00F9D870BD58350008583500085835000854
:1033BC0060350008704700BF704700BF024B13B167
:1033CC00024800F005B8704700000000E93300081F
:1033DC00002301461A46184600F014B838B5074DBC
:1033EC00074C2C1BA41005D0013C55F8043D984704
:1033FC00002CF9D1BDE8384000F04AB8643500081B
:10340C00603500082DE9F8431B4D064628689846A0
:10341C000F469146FFF7CEFF184B1C681CB328686B
:10342C0065681F2D22DC4EB96B1C0235636044F8B5
:10343C002570FFF7C1FF0020BDE8F88304EB850180
:10344C000123C1F88890D4F88821AB401A43022E8E
:10345C00C4F88821C1F80881E6D1D4F88C211A432C
:10346C00C4F88C21E0E7064C1C60D8E7FFF7A4FFFA
:10347C004FF0FF30E0E700BF780100206803002028
:10348C0070030020F8B500BFF8BC08BC9E4670471E
:0C349C00F8B500BFF8BC08BC9E467047A5
:1034A800000000000102030400000000000000000A
:0834B8000102030406070809E4
:1034C000CCCEFF7F0100000084D0FF7FB0B0A88089
:1034D000ACD0FF7F010000006CF0FF7FB0A902803C
:1034E000FCF0FF7FB0B0A8804CF1FF7F010000002E
:1034F00054F1FF7FB0B0AA8088F1FF7FAE75B28033
:1035000058F2FF7FAB3F3A80B8F2FF7F0100000026
:10351000C0F2FF7FB0B0AA80FCF2FF7F0100000084
:10352000A4F3FF7FAA0FB28020F4FF7FB0AF088022
:10353000BCF6FF7F01000000CCF6FF7FAC3F0380AC
:10354000B4F9FF7F01000000E4F9FF7FB0AD048013
:08355000D8FCFF7F0100000020
:08355800C93300082905000831
:043560000105000859
:103564000000000000000000000000000000000057
:10357400000000000E000000000000000100000038
:1035840001000000000000000024F400010000001D
:103594001000000038000020000000002C02002071
:1035A40094020020FC020020000000000000000043
:1035B4000000000000000000000000000000000007
:1035C40000000000000000000000000000000000F7
:1035D40000000000000000000000000000000000E7
:1035E40000000000000000000000000000000000D7
:1035F40000000000000000000000000000000000C7
:1036040000000000000000000000000000000000B6
:1036140000000000000000000000000000000000A6
:103624000000000000000000000000000000000096
:1036340001000000000000000E33CDAB34126DE633
:10364400ECDE05000B00000000000000000000009C
:103654000000000000000000000000000000000066
:103664000000000000000000000000000000000056
:103674000000000000000000000000000000000046
:103684000000000000000000000000000000000036
:103694000000000000000000000000000000000026
:1036A4000000000000000000000000000000000016
:1036B4000000000000000000000000000000000006
:1036C40000000000000000000000000000000000F6
:0C36D40000000000000000006403002063
:04000005080009A145
:00000001FF
